:100000000C9421030C9449030C9449030C94490368
:100010000C9449030C9449030C9449030C94490330
:100020000C9449030C9449030C9449030C94490320
:100030000C9449030C9449030C9449030C94490310
:100040000C94830C0C9449030C94760B0C94500B79
:100050000C9449030C9449030C9449030C944903F0
:100060000C94CD0C0C944903520E540E560E590E9E
:100070005D0E600E640E670E6B0E6E0EA60EA60E63
:10008000A60EA60EA60EA60E720E750E790E7C0E8C
:10009000800E830E870E890E8B0E8D0EA60EA60E79
:1000A000A60EA60EA60EA60E8F0E920E960E9A0EF7
:1000B0009C0EA00EA20EA40E471B4A1B4F1B521BE8
:1000C000571B5A1B5F1B621B671B6A1B6F1B721B34
:1000D000771B7A1B7D1B801B831B861B8B1B901B36
:1000E000931B981B9B1B00000000003E5B4F5B3E78
:1000F0003E6B4F6B3E1C3E7C3E1C183C7E3C181CED
:10010000577D571C1C5E7F5E1C00183C1800FFE7E3
:10011000C3E7FF0018241800FFE7DBE7FF30483A89
:10012000060E2629792926407F050507407F0525EB
:100130003F5A3CE73C5A7F3E1C1C08081C1C3E7F73
:1001400014227F22145F5F005F5F06097F017F003A
:100150006689956A606060606094A2FFA29408045A
:100160007E040810207E201008082A1C08081C2A7B
:1001700008081E101010100C1E0C1E0C30383E38D3
:1001800030060E3E0E06000000000000005F00007A
:100190000007000700147F147F14242A7F2A1223EB
:1001A0001308646236495620500008070300001CFB
:1001B0002241000041221C002A1C7F1C2A08083E04
:1001C0000808008070300008080808080000606017
:1001D0000020100804023E5149453E00427F400085
:1001E00072494949462141494D331814127F10275D
:1001F000454545393C4A49493141211109073649AC
:10020000494936464949291E00001400000040347F
:100210000000000814224114141414140041221484
:100220000802015909063E415D594E7C1211127CAB
:100230007F494949363E414141227F4141413E7F0C
:10024000494949417F090909013E414151737F08EC
:1002500008087F00417F41002040413F017F081492
:1002600022417F404040407F021C027F7F040810F3
:100270007F3E4141413E7F090909063E4151215ED1
:100280007F09192946264949493203017F01033F65
:100290004040403F1F2040201F3F4038403F6314F4
:1002A00008146303047804036159494D43007F41F6
:1002B00041410204081020004141417F0402010233
:1002C0000440404040400003070800205454784058
:1002D0007F284444383844444428384444287F38EC
:1002E0005454541800087E090218A4A49C787F086E
:1002F00004047800447D40002040403D007F1028E9
:10030000440000417F40007C047804787C080404A9
:10031000783844444438FC1824241818242418FC41
:100320007C08040408485454542404043F44243CE6
:100330004040207C1C2040201C3C4030403C442855
:100340001028444C9090907C4464544C44000836EF
:10035000410000007700000041360800020102045D
:10036000023C2623263C1EA1A161123A4040207A7D
:1003700038545455592155557941225454784221C5
:100380005554784020545579400C1E5272123955FC
:1003900055555939545454593955545458000045F9
:1003A0007C410002457D420001457C407D121112D6
:1003B0007DF0282528F07C545545002054547C5469
:1003C0007C0A097F4932494949323A4444443A3225
:1003D0004A4848303A4141217A3A42402078009DCB
:1003E000A0A07D3D4242423D3D4040403D3C24FF77
:1003F0002424487E4943662B2FFC2F2BFF0929F626
:1004000020C0887E090320545479410000447D4176
:100410003048484A32384040227A007A0A0A727DCF
:100420000D19317D2629292F2826292929263048EA
:100430004D4020380808080808080808382F10C858
:10044000ACBA2F102834FA00007B000008142A14DC
:100450002222142A14085500550055AA55AA55AA57
:10046000FF55FF55FF000000FF00101010FF0014A3
:100470001414FF001010FF00FF1010F010F01414FF
:1004800014FC001414F700FF0000FF00FF1414F424
:1004900004FC141417101F10101F101F1414141F25
:1004A00000101010F0000000001F101010101F109E
:1004B000101010F010000000FF101010101010109D
:1004C0001010FF10000000FF140000FF00FF0000EC
:1004D0001F10170000FC04F414141710171414F460
:1004E00004F40000FF00F714141414141414F7009B
:1004F000F7141414171410101F101F141414F414EC
:100500001010F010F000001F101F0000001F14005A
:100510000000FC140000F010F01010FF10FF141485
:1005200014FF141010101F00000000F010FFFFFF58
:10053000FFFFF0F0F0F0F0FFFFFF0000000000FF11
:10054000FF0F0F0F0F0F3844443844FC4A4A4A3417
:100550007E02020606027E027E026355494163382E
:1005600044443C04407E201E2006027E020299A5DF
:10057000E7A5991C2A492A1C4C7201724C304A4D3D
:100580004D303048784830BC625A463D3E49494972
:10059000007E0101017E2A2A2A2A2A44445F44441B
:1005A00040514A444040444A51400000FF0103E0AA
:1005B00080FF000008086B6B083612362436060FE1
:1005C000090F06000018180000001010003040FF4E
:1005D0000101001F01011E00191D1712003C3C3CC7
:1005E0003C000000000000000000240027002A005A
:1005F00000000000250028002B0000000000230060
:100600002600290004040404040404040202020273
:1006100002020303030303030102040810204080C5
:100620000102040810200102040810200000000844
:1006300000020100000304070000000000000000A9
:10064000A61711241FBECFEFD8E0DEBFCDBF13E049
:10065000A0E0B1E0E4E8FDE302C005900D92AA320B
:10066000B107D9F725E0AAE2B3E001C01D92A53198
:10067000B207E1F713E0C1E2D3E004C02197FE0125
:100680000E94AE1CC032D107C9F70E9416180C9404
:10069000C01E0C940000FC01538D448D252F30E0CA
:1006A000842F90E0821B930B541710F0CF9608957F
:1006B00001970895FC01918D828D981761F0828DCC
:1006C000DF01A80FB11D5D968C91928D9F5F9F7386
:1006D000928F90E008958FEF9FEF0895FC01918D28
:1006E000828D981731F0828DE80FF11D858D90E095
:1006F00008958FEF9FEF0895FC01918D228D892F32
:1007000090E0805C9F4F821B91098F739927089519
:10071000FC01848DDF01A80FB11DA35ABF4F2C919E
:10072000848D90E001968F739927848FA689B7896D
:100730002C93A089B1898C9180648C93938D848D46
:10074000981306C00288F389E02D80818F7D808315
:100750000895EF92FF920F931F93CF93DF93EC01D5
:1007600081E0888F9B8D8C8D981305C0E889F9896D
:10077000808185FD24C0F62E0B8D10E00F5F1F4F8A
:100780000F731127E02E8C8DE8120CC00FB607FCFA
:10079000FACFE889F989808185FFF5CFCE010E94E3
:1007A0008803F1CF8B8DFE01E80FF11DE35AFF4F57
:1007B000F0820B8FEA89FB898081806207C0EE8915
:1007C000FF896083E889F98980818064808381E082
:1007D00090E0DF91CF911F910F91FF90EF900895DE
:1007E000CF93DF93EC01888D8823C9F0EA89FB89D8
:1007F000808185FD05C0A889B9898C9186FD0FC0CF
:100800000FB607FCF5CF808185FFF2CFA889B989A3
:100810008C9185FFEDCFCE010E948803E7CFDF9159
:10082000CF91089580E090E0892B29F00E949215E5
:1008300081110C9400000895833081F028F48130F8
:1008400099F08230A1F008958730A9F08830B9F08E
:100850008430D1F4809180008F7D03C0809180002E
:100860008F7780938000089584B58F7702C084B518
:100870008F7D84BD08958091B0008F7703C08091F3
:10088000B0008F7D8093B00008953FB7F8948091B9
:10089000940390919503A0919603B091970326B588
:1008A000A89B05C02F3F19F00196A11DB11D3FBFA8
:1008B000BA2FA92F982F8827820F911DA11DB11D36
:1008C000BC01CD0142E0660F771F881F991F4A9532
:1008D000D1F70895FC018589823059F0833081F089
:1008E00081111AC087E090E0861B970BBA01AC011A
:1008F00013C08FE090E0841B950BAB01BC010CC0D2
:100900008FE090E0DC01A61BB70BBD0187E090E013
:10091000DC01A41BB50BAD0148305105E8F4603192
:100920007105D0F4440F551FE40FF51F81E090E0EE
:1009300002C0880F991F6A95E2F7232B29F0228DB8
:10094000338D822B932B06C080959095228D338D0D
:1009500082239323938F828F08950895FC016370FF
:10096000658B8481958126813781613039F06330D0
:1009700029F09187808733872287089531872087E0
:100980009387828708952F923F924F925F926F9242
:100990007F928F929F92AF92BF92CF92DF92EF920F
:1009A000FF920F931F93CF93DF93CDB7DEB76C9772
:1009B0000FB6F894DEBF0FBECDBF9C8F8B8F5B014F
:1009C0001A011F830E833701C982DC0158964D91AD
:1009D0005C9159974115510509F0E5C018968D9124
:1009E0009C911997681779070CF0CAC11A968D91D6
:1009F0009C911B97281639060CF0C2C18C2C912CA7
:100A0000FB0136E0C39EE00DF11D1124FB87EA8750
:100A10001E161F060CF0B4C1C40133E0880F991FE5
:100A20003A95E1F79D878C87820D931D181619065C
:100A30000CF0A6C157968C91811103C0203B08F0A1
:100A40002F5FAB8DBC8DED91FC9111970284F385E6
:100A5000E02DCD012A8F09952A8DB5E02B9F9001BD
:100A60001124F5013596FF87EE87BB82AA82250106
:100A7000A9014A195B09598B488BC10108969B8BC8
:100A80008A8BE889F989E40DF51DEA51FF4F9491AD
:100A9000988761013D822C82A885A0FF13C0AB8D91
:100AA000BC8DED91FC91B981B13031F40484F585B0
:100AB000E02D2E813F8116C00684F785E02DEE8063
:100AC000FF801AC0EE81FF816E167F06F1F0AB8DBC
:100AD000BC8DED91FC91B981B13051F40484F58560
:100AE000E02D9301A601B2018B8D9C8D09950DC05F
:100AF0000684F785E02D7301840194014C815D81AA
:100B00006A817B818B8D9C8D0995E885E695E887C8
:100B1000FFEFCF1ADF0A2C813D81280D391D3D835F
:100B20002C834A895B89C416D50609F0B5CF5FEFDF
:100B3000451A550A8A819B81880D991D9B838A835A
:100B4000AE85BF854A165B0609F09BCFEE81FF811B
:100B50006E167F0609F4F2C0EB8DFC8DA081B18189
:100B6000F981F13079F4B5016B5F7F4F5096ED91CB
:100B7000FC915197830128E030E0A1018B8D9C8D81
:100B80000995DCC06A857B85681979091E96ED9107
:100B9000FC911F9773010C851D859401A1018B8D1C
:100BA0009C8D0995CBC0FA0134969491329765914A
:100BB0007491291BCB01B7E02B9F800D911D11244F
:100BC000FA01259134913B8B2A8BFC01459154917C
:100BD0005B834A83FC013296C490319654915E87C0
:100BE000329614913196D4908981823058F0612EDA
:100BF000012E000C7708AD2D0D2C000CBB0BB98716
:100C0000A88704C019861886612C712CAB8DBC8D09
:100C1000ED91FC9111970284F385E02DCD010995AA
:100C2000B9818B2E912C689CC001699C900D789C99
:100C3000900D1124FC01EA0DFB1DFD87EC871C8241
:100C4000712C612CE12F110FFF0B95012E0F3F1F0F
:100C50003B872A87AC0CB11CA5014E0F5F1F5F8B31
:100C60004E8BC1018D0D911DD7FC9A95998F888F60
:100C70004E85641608F062C0862D90E0488559853F
:100C8000480F591F489D9001499D300D589D300DCA
:100C90001124D901A20DB31DB98BA88BAA84BB84E2
:100CA0004C845D84DC80BA85DB1AE88DF98DE80F11
:100CB000F91FFD8BEC8B8D2D8A0D2E893F89A21695
:100CC000B306B9F1877061F48A819B810196EA8944
:100CD000FB89AA81BB81EA0FFB1F74909B838A83E7
:100CE00077FE20C0AB8DBC8DED91FC91B981B13008
:100CF00061F40484F585E02D2E813F814C895D8966
:100D0000B5018B8D9C8D09950DC00684F785E02D6E
:100D1000EE80FF808401940148895989B2018B8D4E
:100D20009C8D0995770CEFEFAE1ABE0A480C591C42
:100D3000C2CF3C813C0D3C8363949ACFAB8DBC8D7C
:100D4000ED91FC9111970688F789E02DCD016C9605
:100D50000FB6F894DEBF0FBECDBFDF91CF911F91CC
:100D60000F91FF90EF90DF90CF90BF90AF909F904A
:100D70008F907F906F905F904F903F902F9009944D
:100D80006C960FB6F894DEBF0FBECDBFDF91CF914A
:100D90001F910F91FF90EF90DF90CF90BF90AF9099
:100DA0009F908F907F906F905F904F903F902F908B
:100DB0000895AF92BF92CF92EF92FF920F931F933D
:100DC000CF93DF93EC01262F888D998D009709F042
:100DD00040C06A3059F41D861C862C898E859F85FB
:100DE00038E0239F800D911D112441C06D3009F41E
:100DF000AAC08E898823C1F03C898C859D8546E0F8
:100E0000349F800D911D1124488559854817590735
:100E10005CF41D861C868E859F8548E0349F800D7E
:100E2000911D11249F878E87EA88FB88088919897C
:100E30004E855F856C857D85CC88CE010E94C3047C
:100E40002C898C859D8536E0239F800D911D112472
:100E500042C06A3079F41D861C862C89FC013696C6
:100E6000E4918E859F852E9F800D911D11249F8773
:100E70008E8769C06D3009F466C0FC0134963491E8
:100E8000631708F460C03196E491E61708F45BC07C
:100E9000FC013296A590B490462F50E0431B5109B7
:100EA00037E0349FB001359F700D1124A60EB71E98
:100EB000F501329634913196E491332311F0E1112A
:100EC0000DC0F5013496E4912C898C859D85E29FB7
:100ED000800D911D11249D878C8735C0F5013596B5
:100EE00044915E89552311F16C89E32FF0E0E40F02
:100EF000F11D47FDFA956E9FD0016F9FB00D112433
:100F00004C855D854A0F5B1FE885F985E417F50779
:100F10006CF41D861C86FC013696E4918E859F85B7
:100F20006E9F800D911D11249F878E87EA88FB8814
:100F3000088919894E855F856C857D85CC88CE01B1
:100F40000E94C304BECF81E090E0DF91CF911F915A
:100F50000F91FF90EF90CF90BF90AF9008956F9258
:100F60007F928F929F92AF92BF92CF92DF92EF9239
:100F7000FF920F931F93CF93DF93EC014B015A0124
:100F800069013801E881F9810284F385E02D099532
:100F9000E881F9810288F389E02D87019601A50196
:100FA000B401CE010995E881F981A501460D571DCF
:100FB000415051090288F389E02D9601B401CE0118
:100FC0000995E881F9810088F189E02D9301A50157
:100FD000B401CE010995E881F981C80CD91CB6018C
:100FE000615071090088F189E02D9301A501CE01BE
:100FF0000995E881F9810688F789E02DCE01DF9116
:10100000CF911F910F91FF90EF90DF90CF90BF9005
:10101000AF909F908F907F906F900994CF92DF92C6
:10102000EF92FF920F931F93CF93DF9300D000D0E6
:1010300000D0CDB7DEB76C01DC01ED91FC916217F9
:10104000730789F4041715072CF4942F852FA80132
:10105000092F182F041B150B98012F5F3F4F048C8D
:10106000F58DE02D12C04017510709F526173707F7
:101070002CF4962F872FB901292F382F261B370BD9
:101080002F5F3F4F068CF78DE02D8701C601099534
:1010900026960FB6F894DEBF0FBECDBFDF91CF917D
:1010A0001F910F91FF90EF90DF90CF9008950284F1
:1010B000F385E02D2D833E834B835C8369837A83A4
:1010C0000995D601ED91FC910488F589E02D2D81DB
:1010D0003E814B815C8169817A81C6010995D60187
:1010E000ED91FC910688F789E02DC60126960FB692
:1010F000F894DEBF0FBECDBFDF91CF911F910F914E
:10110000FF90EF90DF90CF900994EF92FF920F93B2
:101110001F93DC01ED91FC9111971A960D911C9192
:101120001B9718962D913C91199700A0F1A1E02DE5
:101130007B0140E050E060E070E009951F910F9165
:10114000FF90EF9008954F925F926F927F928F92EF
:101150009F92AF92BF92CF92DF92EF92FF920F9346
:101160001F93CF93DF9300D0CDB7DEB76C015A0148
:1011700039014801DC01ED91FC910284F385E02DF9
:1011800069837A8309956981462E7A81572E640C8A
:10119000751CD601ED91FC91461457046CF400883F
:1011A000F189E02D87019401A501B201C6010995DD
:1011B000BFEF4B1A5B0AEDCF0688F789E02DC60119
:1011C0000F900F90DF91CF911F910F91FF90EF90B3
:1011D000DF90CF90BF90AF909F908F907F906F9057
:1011E0005F904F900994AF92BF92CF92DF92EF92AF
:1011F000FF920F931F93CF93DF9300D000D0CDB712
:10120000DEB75C016901DC01ED91FC910284F3859C
:10121000E02D4B835C8369837A830995D501ED9139
:10122000FC9169817A819B012C0D3D1D2150310972
:101230000488F589E02D78014B815C818A01C50124
:101240000995D501ED91FC910688F789E02DC5013E
:101250000F900F900F900F90DF91CF911F910F91F2
:10126000FF90EF90DF90CF90BF90AF900994AF9236
:10127000BF92CF92DF92EF92FF920F931F93CF9383
:10128000DF9300D000D0CDB7DEB75C016901DC018F
:10129000ED91FC910284F385E02D4B835C8369839F
:1012A0007A830995D501ED91FC914B815C81C40E47
:1012B000D51EB1E0CB1AD1080488F589E02D78015C
:1012C000860169817A819B01C5010995D501ED915E
:1012D000FC910688F789E02DC5010F900F900F90C3
:1012E0000F90DF91CF911F910F91FF90EF90DF90C2
:1012F000CF90BF90AF9009940895EF92FF920F9313
:101300001F93DC01ED91FC9100A0F1A1E02D099566
:101310001F910F91FF90EF9008950F931F93DC01A1
:10132000ED91FC91068CF78DE02D09951F910F91A1
:1013300008950F931F93DC01ED91FC91048CF58DC2
:10134000E02D09951F910F910895DC01ED91FC911D
:101350000084F185E02D099408952F923F924F92D9
:101360005F926F927F928F929F92AF92BF92CF9235
:10137000DF92EF92FF920F931F93CF93DF9300D0F2
:101380001F92CDB7DEB74C017B836A836A01590196
:1013900017019801241B350B37FF03C031952195A8
:1013A0003109C5014A815B81841B950B97FF03C0FE
:1013B00091958195910951E059838217930714F013
:1013C00019820BC09A2D8B2D5801092F182F9A8145
:1013D0008B81DB82CA82C92ED82E8A819B81A81676
:1013E000B9065CF49C2D8D2D6801092F182F9A8168
:1013F0008B81BB82AA82A92EB82E2501AA81BB812E
:101400004A1A5B0A38016C187D0877FE03C0719494
:1014100061947108720157FE03C0BFEFEB1AFB0A1B
:10142000F594E794C016D1061CF00FEF1FEF1FC014
:1014300001E010E01CC0D401ED91FC91B98104845D
:10144000F585E02D9101BB23C1F04A815B81B60196
:10145000C4010995E618F708F7FE04C0C00ED11EB6
:10146000E40CF51CEA81FB813196FB83EA834A8117
:101470005B81A416B506FCF604C0A6016A817B81D7
:10148000E7CF0F900F900F90DF91CF911F910F91A9
:10149000FF90EF90DF90CF90BF90AF909F908F9094
:1014A0007F906F905F904F903F902F90089585EDC3
:1014B0008093BC008091BC0084FDFCCF1092BE03E1
:1014C000089540916C03262F30E0240F311D213206
:1014D0003105DCF42091BE032430C9F4FC0180E026
:1014E00090E0861758F430916C032191DC01A45BE5
:1014F000BC4FA30FB11D2C930196F3CF80916C03C9
:10150000680F60936C0380E0089581E0089582E0A5
:101510000895E0914A03F0914B03309729F010921F
:10152000C0031092E20309940895CF93DF93AC01B6
:10153000E0910305F09104053097F1F090910605D4
:10154000809105059817C0F090E0292F30E026170C
:10155000370754F4D901A65DBC4FEA01C20FD31F6F
:1015600088818C939F5FF1CF1092060560930505EB
:10157000CB01DF91CF910994DF91CF910895089528
:10158000E091060580910505E81730F4F0E0E65D8E
:10159000FC4F808190E008958FEF9FEF0895909128
:1015A000060580910505981750F4E92FF0E0E65DF7
:1015B000FC4F208130E09F5F9093060502C02FEF23
:1015C0003FEFC90108958091050590E0209106053F
:1015D000821B91090895CF92DF92EF92FF920F93B1
:1015E0001F93CF93DF937C01262F972F8A01809141
:1015F000BF03882391F0C62FD72F6E01C40ED51ECE
:10160000CC15DD0571F06991D701ED91FC91019048
:10161000F081E02DC7010995F3CF642F822F0E943E
:10162000610AC801DF91CF911F910F91FF90EF9058
:10163000DF90CF900895CF93DF931F92CDB7DEB7A1
:1016400069832091BF032223D1F02091E20320324D
:1016500040F021E030E0FC013383228380E090E021
:1016600015C08091C003E82FF0E0EF53FC4F998143
:1016700090838F5F8093C0038093E20305C061E095
:10168000CE0101960E94610A81E090E00F90DF9107
:10169000CF910895089580E090E008950E94AB1ED8
:1016A0001F920F920FB60F9211242F933F934F93D7
:1016B0005F936F937F938F939F93AF93BF93EF93BA
:1016C000FF9383EE93E00E948803FF91EF91BF9117
:1016D000AF919F918F917F916F915F914F913F91CA
:1016E0002F910F900FBE0F901F9018951F920F9281
:1016F0000FB60F9211242F938F939F93EF93FF9325
:10170000E091F303F091F4038081E091F903F0910B
:10171000FA0382FD12C090818091FC038F5F8F736A
:101720002091FD03821751F0E091FC03F0E0ED51B0
:10173000FC4F958F8093FC0301C08081FF91EF9156
:101740009F918F912F910F900FBE0F901F90189522
:10175000CF93DF93282F30E0F901E45DF94F8491B6
:10176000F901E85EF94FD491F901EC5FF94FC491AA
:10177000CC2391F081110E941C04EC2FF0E0EE0FBD
:10178000FF1FE650FA4FA591B491EC91ED2381E053
:1017900090E021F480E002C080E090E0DF91CF9102
:1017A00008951F93CF93DF93282F30E0F901E45D74
:1017B000F94F8491F901E85EF94FD491F901EC5F9A
:1017C000F94FC491CC23C9F0162F81110E941C043B
:1017D000EC2FF0E0EE0FFF1FE051FA4FA591B4910E
:1017E0008FB7F894111105C09C91ED2FE095E92376
:1017F00002C0EC91ED2BEC938FBFDF91CF911F9145
:101800000895CF93DF9390E0FC01E85EF94F2491B7
:10181000FC01EC5FF94F8491882361F190E0880F1F
:10182000991FFC01EA51FA4FC591D491FC01E05196
:10183000FA4FA591B491611109C09FB7F8948881BE
:10184000209582238883EC912E230BC0623061F4B3
:101850009FB7F8943881822F809583238883EC91F9
:101860002E2B2C939FBF06C08FB7F894E8812E2BA8
:1018700028838FBFDF91CF9108958F929F92AF926F
:10188000BF92CF92DF92EF92FF926B017C010E9498
:1018900045044B015C01C114D104E104F104F1F0F1
:1018A0000E944504DC01CB0188199909AA09BB09EA
:1018B000883E9340A105B10570F321E0C21AD1081A
:1018C000E108F10888EE880E83E0981EA11CB11C87
:1018D000C114D104E104F10419F7DDCFFF90EF90BA
:1018E000DF90CF90BF90AF909F908F9008952FB7CB
:1018F000F89460919003709191038091920390917C
:1019000093032FBF08951F920F920FB60F921124C9
:101910002F933F938F939F93AF93BF9380919003A7
:1019200090919103A0919203B091930330918F0312
:1019300023E0230F2D3720F40196A11DB11D05C012
:1019400026E8230F0296A11DB11D20938F038093DB
:10195000900390939103A0939203B093930380918B
:10196000940390919503A0919603B09197030196EB
:10197000A11DB11D8093940390939503A0939603AA
:10198000B0939703BF91AF919F918F913F912F910A
:101990000F900FBE0F901F9018951F920F920FB6C9
:1019A0000F9211242F933F934F935F936F937F93E5
:1019B0008F939F93AF93BF93EF93FF938091B90061
:1019C000887F803609F49CC068F5883209F45BC0D2
:1019D00090F4803109F454C038F4882309F4F6C037
:1019E000883009F44DC0F6C0883109F44CC080320B
:1019F00009F45DC0EFC0803409F468C048F4803356
:101A000009F455C0883309F0E5C08093BC03D8C001
:101A1000803509F44FC0883509F45DC0883409F079
:101A2000D9C0D6C0883909F4C7C0A8F4883709F4EA
:101A300067C038F4883609F463C0803709F460C0A1
:101A4000C9C0883809F4B8C0803909F45FC080384B
:101A500009F0C0C05BC0803B09F486C038F4803A0E
:101A600009F466C0883A09F47FC0B4C0803C09F428
:101A7000A7C0883C09F4A4C0883B09F48AC0AAC066
:101A80008091990310C09091BB038091BA0398177D
:101A900070F5E091BB0381E08E0F8093BB03F0E013
:101AA000E656FC4F80818093BB0085EC86C0809316
:101AB000BC038EC0E091BB0381E08E0F8093BB031B
:101AC0008091BB00F0E0E656FC4F80839091BB0311
:101AD0008091BA036EC0E091BB0381E08E0F8093CA
:101AE000BB038091BB00F0E0E656FC4F8083809101
:101AF000BD0381116DC081E08093980384EA61C0C9
:101B000083E08093BE0310928E03CFCF80918E032B
:101B1000803208F051C0E0918E0381E08E0F8093F7
:101B20008E038091BB00F0E0E259FC4F8083BDCF73
:101B300085EC8093BC001092BE0380918E038032AE
:101B400030F4E0918E03F0E0E259FC4F1082609196
:101B50008E0370E0E091FF04F09100058EE693E0C3
:101B6000099510928E0336C084E08093BE031092D4
:101B70006D0310926C03E0910105F0910205099547
:101B800080916C03811105C081E080936C031092F9
:101B90004C03E0916D0381E08E0F80936D03F0E0C4
:101BA000E45BFC4F80818093BB0090916D0380913A
:101BB0006C03981708F479CF85E88093BC000AC0BD
:101BC00085EC8093BC001092BE0304C01092BC034D
:101BD0000E94570AFF91EF91BF91AF919F918F9112
:101BE0007F916F915F914F913F912F910F900FBE19
:101BF0000F901F9018951092BE0381E08093BD0353
:101C00001092980361E082E10E94D10B61E083E1D0
:101C10000E94D10BE9EBF0E080818E7F8083808190
:101C20008D7F808388E48093B80085E48093BC0036
:101C30000895EF92FF920F931F936BE571E083EE8F
:101C400093E00E9465160E94590FEE24E394F12C54
:101C50000EE010E028E030E042E050E060E070E0AC
:101C600084ED94E00E94A3081F910F91FF90EF90E4
:101C70000C942C0F6AE671E083EE93E00E946516E7
:101C80000E94590F0C942C0F88EC94E00E94CF0A0C
:101C900078948832910508F059C0FC01EC5CFF4F44
:101CA0000C94AE1C0C943A0E0C94190E81E090E04A
:101CB00002C082E090E00C94461781E090E002C000
:101CC00082E090E00C94011781E090E002C082E095
:101CD00090E00C94BC1681E090E002C082E090E0BD
:101CE0000C94791681E090E002C082E090E00C94C0
:101CF0004D1581E090E002C082E090E00C94B614B3
:101D000081E090E002C082E090E00C941F140C94FB
:101D1000E8130C9493130C943C130C94E51288EC88
:101D200090E002C084E690E00C94941284EF91E07D
:101D30000C9453120C940F1288EC90E00C94AD119B
:101D40000C949B100C94ED0F0C94780F0895E3EE17
:101D5000F3E0A089B18982E08C93A485B5851C92BB
:101D6000A685B7858FEC8C93108EA489B58986E003
:101D70008C93A289B3898C9180618C93A289B38959
:101D80008C9188608C93A289B3898C9180688C93A4
:101D90000288F389E02D80818F7D808308952091D2
:101DA000E2039091E103213208F04AC08091BE0322
:101DB0008111FCCF32E03093BE0331E03093BD039C
:101DC0003FEF3093BC031092BB032093BA03A1EC06
:101DD000B3E04AE953E0FA013E2F341B321718F4FE
:101DE0003D913193F9CF1092990320919903990F66
:101DF000922B9093990390919803913061F41092F3
:101E00009803909199039093BB009091BC0093FD2F
:101E1000F8CF95EC01C095EE9093BC009091BE0375
:101E20009230E1F39091BC039F3F79F08091BC0325
:101E3000803241F08091BC03803331F084E005C0F2
:101E400081E003C082E001C083E01092C0031092E1
:101E5000E2031092BF0308950F931F93CF93DF9374
:101E60008091FE0491E09093BF038093E103109270
:101E7000C0031092E20360E088EC94E00E941B0B28
:101E8000CEEED4E08E01688188EC94E00E941B0BBA
:101E90002296F801618188EC94E00E941B0BF4E02B
:101EA000CE3FDF0779F7DF91CF911F910F910C940F
:101EB000CF0EEEEEF4E01192119284E0EE3FF807BF
:101EC000D1F708959091FE0421E02093BF039093F1
:101ED000E1031092C0031092E203803108F08FE01A
:101EE000682F606E88EC94E00E941B0B0C94CF0E60
:101EF0004F925F926F927F928F929F92AF92BF921A
:101F0000CF92DF92EF92FF920F931F93CF93DF93C5
:101F1000CDB7DEB728970FB6F894DEBF0FBECDBFA2
:101F20006AE771E083EE93E00E94651604E110E039
:101F30008EE0482E512C612C712C98E0C92ED12CAA
:101F4000E12CF12C0E94061C4B015C010E94061C36
:101F50006D837E838F8398870E94590F6D817E8168
:101F60008F819885A30192010E94361C9B01AC01D0
:101F70002E5F3F4F4F4F5F4F29833A834B835C83E4
:101F8000C501B401A70196010E94361C21E030E092
:101F900049815A8184ED94E00E946A040E942C0FCA
:101FA0000150110979F60E94590F28960FB6F8943E
:101FB000DEBF0FBECDBFDF91CF911F910F91FF907C
:101FC000EF90DF90CF90BF90AF909F908F907F90D9
:101FD0006F905F904F900C942C0F1F93CF93DF93D3
:101FE0006FE871E083EE93E00E94651615E0C1E0B2
:101FF000D0E00E94590F21E030E043E050E0BE0104
:1020000084ED94E00E946A040E942C0F66E970E05F
:1020100080E090E00E943D0C2196C730D10549F741
:10202000C4E0D0E00E94590F21E030E0AE0166E04C
:1020300070E084ED94E00E946A040E942C0F66E92F
:1020400070E080E090E00E943D0C2196CF30D105F9
:1020500049F7C5E0D0E00E94590F21E030E04EE0A2
:1020600050E0BE0184ED94E00E946A040E942C0FAF
:1020700066E970E080E090E00E943D0C219759F7FE
:10208000CDE0D0E00E94590F21E030E0AE0161E0E8
:1020900070E084ED94E00E946A040E942C0F66E9CF
:1020A00070E080E090E00E943D0C2197C330D105A4
:1020B00049F7115009F09BCF0E94590FDF91CF9142
:1020C0001F910C942C0FCF92DF92EF92FF92CF933F
:1020D000DF936B017C01E091E303F091E403019055
:1020E000F081E02D6DE283EE93E00995EC01442749
:1020F0005527BA014C195D096E097F092AE083EE64
:1021000093E00E941C168C0F9D1FDF91CF91FF90D2
:10211000EF90DF90CF900895AC01990F660B770B8D
:1021200077FF04C0CB01BA010C9463102AE083EE60
:1021300093E00C941C16CF92DF92EF92FF921F93C4
:10214000CF93DF9360EA71E083EE93E00E9465161F
:1021500015E087E0E82EF12C91E1C92ED12CC6E0E4
:10216000D0E061EB71E083EE93E00E94A417CE0112
:102170000E948C1063EB71E083EE93E00E94A41741
:102180008EE090E00E948C1065EB71E083EE93E0AE
:102190000E9465160E94590FB7016C1B7D0B21E050
:1021A00030E043E050E084ED94E00E946A0421E0D6
:1021B00030E04EE050E0BE0184ED94E00E946A04FD
:1021C0000E942C0F66E970E080E090E00E943D0CD8
:1021D000219739F6CDE0D0E061EB71E083EE93E03A
:1021E0000E94A41781E090E00E948C1063EB71E0E4
:1021F00083EE93E00E94A417CE010E948C1065EB41
:1022000071E083EE93E00E9465160E94590FA601CB
:102210004C1B5D0B21E030E066E070E084ED94E063
:102220000E946A0421E030E0AE0161E070E084EDDC
:1022300094E00E946A040E942C0F66E970E080E03E
:1022400090E00E943D0C2197C230D10529F661EB48
:1022500071E083EE93E00E94A417CE010E948C10DF
:1022600063EB71E083EE93E00E94A41783E090E0BB
:102270000E948C1065EB71E083EE93E00E9465167E
:102280000E94590FB7016C1B7D0B21E030E04EE03E
:1022900050E084ED94E00E946A0421E030E043E0E5
:1022A00050E0BE0184ED94E00E946A040E942C0F6D
:1022B00066E970E080E090E00E943D0C2196C73016
:1022C000D10529F6C4E0D0E061EB71E083EE93E044
:1022D0000E94A41786E090E00E948C1063EB71E0EE
:1022E00083EE93E00E94A417CE010E948C1065EB50
:1022F00071E083EE93E00E9465160E94590FA601DB
:102300004C1B5D0B21E030E061E070E084ED94E077
:102310000E946A0421E030E0AE0166E070E084EDE6
:1023200094E00E946A040E942C0F66E970E080E04D
:1023300090E00E943D0C2196CE30D10529F6115037
:1023400009F00DCF0E94590FDF91CF911F91FF909F
:10235000EF90DF90CF900C942C0F8F929F92AF92C2
:10236000BF92EF92FF920F931F93CF934C0167EBB5
:1023700071E083EE93E00E946516C5E0092C000C25
:10238000AA08BB080E94590FEE24E394F12C07E041
:1023900010E024E030E042E050E060E070E084EDE6
:1023A00094E00E94A30824E030E049E050E064E0BB
:1023B00070E084ED94E00E94A3080E942C0FC501F8
:1023C000B4010E943D0C0E94590F24E030E042E02D
:1023D00050E064E070E084ED94E00E94A30824E003
:1023E00030E049E050E060E070E084ED94E00E946D
:1023F000A3080E942C0FC501B4010E943D0CC150DE
:1024000009F0C0CF0E94590FCF911F910F91FF90FB
:10241000EF90BF90AF909F908F900C942C0FEF9205
:10242000FF920F931F93CF936EEC71E083EE93E0D6
:102430000E946516C5E00E94590FEE24E394F12C2A
:1024400000E110E024E030E042E050E060E070E0C5
:1024500084ED94E00E94A3080E942C0F64EF71E0C9
:1024600080E090E00E943D0C0E94590F24E030E093
:1024700042E050E064E070E084ED94E00E94A30844
:102480000E942C0F64EF71E080E090E00E943D0C10
:10249000C15089F60E94590FCF911F910F91FF9063
:1024A000EF900C942C0F8F929F92AF92BF92EF926D
:1024B000FF920F931F93CF934C0165EE71E083EE73
:1024C00093E00E946516C5E0092C000CAA08BB0821
:1024D000EE24E394F12C0EE010E028E030E042E03E
:1024E00050E060E070E084ED94E00E94A3080E9458
:1024F0002C0FC501B4010E943D0C0E94590F0E948F
:102500002C0FC501B4010E943D0CC15009F70E9477
:10251000590FCF911F910F91FF90EF90BF90AF9007
:102520009F908F900C942C0F8F929F92AF92BF929E
:10253000EF92FF920F931F93CF93DF934C0167EFBE
:1025400071E083EE93E00E946516D5E0092C000C43
:10255000AA08BB080E94590FEE24E394F12C0EE068
:1025600010E028E030E042E050E060E070E084ED10
:1025700094E00E94A3080E942C0FC0E08C2F0E94C0
:10258000620FC501B4010E943D0CCF5FC031B1F7AD
:10259000CFE08C2F0E94620FC501B4010E943D0C58
:1025A000C150B8F7D150B1F60E94590F0E942C0FBC
:1025B00085E1DF91CF911F910F91FF90EF90BF9038
:1025C000AF909F908F900C94620FDF92EF92FF92EA
:1025D0000F931F93CF93DF9364E072E083EE93E059
:1025E0000E94651625E0D22EC0E0D0E00E94590F6F
:1025F000EE24E394F12C8E0127E030E0AE0160E0A0
:1026000070E084ED94E00E940E080E942C0F64E6B6
:1026100070E080E090E00E943D0C2196C031D10531
:1026200029F7C0E0D0E00E94590FEE24E394F12C8A
:102630000FE010E09E0140E050E0BE0184ED94E028
:102640000E940E080E942C0F64E670E080E090E08B
:102650000E943D0C2196C830D10529F7DA94D1109B
:10266000C3CF0E94590FDF91CF911F910F91FF901F
:10267000EF90DF900C942C0FDF92EF92FF920F936C
:102680001F93CF93DF9365E172E083EE93E00E94A6
:10269000651625E0D22EC2E0D0E00E94590FEE244C
:1026A000E394F12C8E0127E030E0AE0160E070E0B1
:1026B00084ED94E00E940E080E942C0F6CE870E0FC
:1026C00080E090E00E943D0C2196C031D10529F7B1
:1026D000CFE0D0E00E94590FEE24E394F12C8E015C
:1026E00027E030E0AE0160E070E084ED94E00E940D
:1026F0000E080E942C0F6CE870E080E090E00E94D1
:102700003D0C2197C130D10529F7DA94D110C3CF00
:102710000E94590FDF91CF911F910F91FF90EF9081
:10272000DF900C942C0FDF92EF92FF920F931F9388
:10273000CF93DF936CE272E083EE93E00E94651624
:1027400025E0D22EC0E0D0E00E94590FEE24E394A1
:10275000F12C0FE010E09E0142E050E0BE0184ED5C
:1027600094E00E940E080E942C0F6CE870E080E05C
:1027700090E00E943D0C2196C830D10529F7C7E0B2
:10278000D0E00E94590FEE24E394F12C0FE010E00A
:102790009E0142E050E0BE0184ED94E00E940E08EC
:1027A0000E942C0F6CE870E080E090E00E943D0CED
:1027B000219738F7DA94D110C5CF0E94590FDF91D5
:1027C000CF911F910F91FF90EF90DF900C942C0F01
:1027D000EF92FF920F931F9365E472E083EE93E014
:1027E0000E9465160E94590FEE24E394F12C0FE02D
:1027F00010E027E030E042E050E060E070E084ED7F
:1028000094E00E940E0802E010E027E030E04FE084
:1028100050E060E070E084ED94E00E940E080E94B9
:102820002C0F68E873E180E090E00E943D0C0E946C
:10283000590F1F910F91FF90EF900C942C0FCF9296
:10284000DF92EF92FF920F931F93CF936C0163E59A
:1028500072E083EE93E00E946516C5E00E94590F76
:10286000EE24E394F12C0AE010E028E030E044E0AC
:1028700050E060E070E084ED94E00E94AF070E94B9
:102880002C0F6CE271E080E090E00E943D0C81E052
:10289000C816D10411F40E94590FEE24E394F12CD0
:1028A00008E010E026E030E045E050E061E070E054
:1028B00084ED94E00E94AF070E942C0F6CE271E05F
:1028C00080E090E00E943D0C81E0C816D10411F434
:1028D0000E94590FEE24E394F12C06E010E024E06E
:1028E00030E046E050E062E070E084ED94E00E9469
:1028F000AF070E942C0F6CE271E080E090E00E9434
:102900003D0C81E0C816D10411F40E94590FEE2449
:10291000E394F12C04E010E022E030E047E050E0E6
:1029200063E070E084ED94E00E94AF070E942C0FFA
:102930006CE271E080E090E00E943D0C0E94590F33
:102940000E942C0F6CE271E080E090E00E943D0C50
:10295000C15009F083CF0E94590FCF911F910F9161
:10296000FF90EF90DF90CF900C942C0FCF92DF92DE
:10297000EF92FF920F931F93CF936C0164E672E086
:1029800083EE93E00E946516C5E00E94590FEE2485
:10299000E394F12C04E010E022E030E047E050E066
:1029A00063E070E084ED94E00E94AF070E942C0F7A
:1029B0006CE271E080E090E00E943D0C81E0C8167E
:1029C000D10411F40E94590FEE24E394F12C06E097
:1029D00010E024E030E046E050E062E070E084ED9A
:1029E00094E00E94AF070E942C0F6CE271E080E03F
:1029F00090E00E943D0C81E0C816D10411F40E94C1
:102A0000590FEE24E394F12C08E010E026E030E0CA
:102A100045E050E061E070E084ED94E00E94AF0793
:102A20000E942C0F6CE271E080E090E00E943D0C6F
:102A300081E0C816D10411F40E94590FEE24E394EA
:102A4000F12C0AE010E028E030E044E050E060E0E3
:102A500070E084ED94E00E94AF070E942C0F6CE2BE
:102A600071E080E090E00E943D0C0E94590F0E94AE
:102A70002C0F6CE271E080E090E00E943D0CC150B0
:102A800009F083CF0E94590FCF911F910F91FF90B2
:102A9000EF90DF90CF900C942C0FAF92BF92DF920B
:102AA000EF92FF920F931F93CF93DF935C0163E745
:102AB00072E083EE93E00E94651695E0D92E0E94A5
:102AC000590FC0E0D0E081E0A816B10411F40E94D3
:102AD000590FEE24E394F12C0FE010E09E0142E048
:102AE00050E0BE0184ED94E00E940E080E942C0F7D
:102AF00068EC70E080E090E00E943D0C2196C830C8
:102B0000D10509F7DA94D110DACF0E94590FDF917D
:102B1000CF911F910F91FF90EF90DF90BF90AF90FA
:102B20000C942C0F83EE93E00E947C0321E0892B10
:102B300009F420E0822F0895CF92DF92EF92FF9266
:102B40000F931F93CF93DF936C017A018B01C0E049
:102B5000D0E0CE15DF0589F0D8016D918D01D60149
:102B6000ED91FC910190F081E02DC6010995892B32
:102B700011F47E0102C02196ECCFC701DF91CF9105
:102B80001F910F91FF90EF90DF90CF900895EF92FB
:102B9000FF920F931F93CF93DF93EC017B018A0188
:102BA00088819981009729F02A813B812417350774
:102BB000F8F4B8016F5F7F4F0E94E11D009759F054
:102BC000998388831B830A832C813D81232B81F485
:102BD000FC0110820DC088819981009711F00E943C
:102BE000491D198218821D821C821B821A8207C00D
:102BF0001D830C83B701888199810E94B91ECE0183
:102C0000DF91CF911F910F91FF90EF900895611583
:102C1000710579F0FB0101900020E9F73197AF01D0
:102C2000461B570BDC01ED91FC910280F381E02DF6
:102C3000099480E090E008954F925F926F927F92A6
:102C4000EF92FF920F931F93CF93DF93CDB7DEB731
:102C5000A1970FB6F894DEBF0FBECDBF7C01FA017D
:102C6000CB0119A2223008F42AE08E010F5D1F4F1C
:102C7000422E512C612C712CBF01A30192010E94A4
:102C8000141CF901CA01015011096A3014F4605D85
:102C900001C0695CD8016C93232B242B252B61F791
:102CA000B801C7010E940716A1960FB6F894DEBFBF
:102CB0000FBECDBFDF91CF911F910F91FF90EF908D
:102CC0007F906F905F904F9008950F931F93CF93D5
:102CD000DF93EC010E9407168C0165E972E0CE01DA
:102CE0000E940716800F911FDF91CF911F910F91C6
:102CF0000895AF92BF92DF92EF92FF920F931F93CE
:102D0000CF93DF935C0164EE72E083EE93E00E9468
:102D1000651695E0D92E0E94590FC7E0D0E081E0FA
:102D2000A816B10411F40E94590FEE24E394F12C7B
:102D30000FE010E09E0142E050E0BE0184ED94E01F
:102D40000E940E080E942C0F68EC70E080E090E07A
:102D50000E943D0C219718F7DA94D110DCCF0E9425
:102D6000590FDF91CF911F910F91FF90EF90DF905E
:102D7000BF90AF900C942C0FAF92BF92DF92EF9266
:102D8000FF920F931F93CF93DF935C0168EF72E084
:102D900083EE93E00E94651695E0D92E0E94590FAC
:102DA000C2E0D0E081E0A816B10411F40E94590FEE
:102DB000EE24E394F12C8E0127E030E0AE0160E0D8
:102DC00070E084ED94E00E940E080E942C0F68ECE5
:102DD00070E080E090E00E943D0C2196C031D1056A
:102DE00009F7DA94D110DACF0E94590FDF91CF9111
:102DF0001F910F91FF90EF90DF90BF90AF900C94D8
:102E00002C0FAF92BF92DF92EF92FF920F931F931E
:102E1000CF93DF935C016BE073E083EE93E00E945D
:102E2000651695E0D92E0E94590FCFE0D0E081E0E1
:102E3000A816B10411F40E94590FEE24E394F12C6A
:102E40008E0127E030E0AE0160E070E084ED94E0B8
:102E50000E940E080E942C0F68EC70E080E090E069
:102E60000E943D0C2197C130D10509F7DA94D110A9
:102E7000DACF0E94590FDF91CF911F910F91FF90F0
:102E8000EF90DF90BF90AF900C942C0FEF92FF92D9
:102E90000F931F93CF93DF937C016CE173E083EE7C
:102EA00093E00E9465160E94590F00E010E0C0E018
:102EB000D0E081E0E816F10411F40E94590F21E0FE
:102EC00030E0A801BE0184ED94E00E946A040E94F3
:102ED0002C0F66E970E080E090E00E943D0C2196A6
:102EE000C830D10531F70F5F1F4F00311105F9F6DA
:102EF0000FE010E0C7E0D0E081E0E816F10429F42B
:102F00000E94590F21E030E002C020E030E0A8012B
:102F1000BE0184ED94E00E946A040E942C0F66E9D1
:102F200070E080E090E00E943D0C219728F701506E
:102F3000110900F70E94590FDF91CF911F910F9156
:102F4000FF90EF900C942C0F0C940716E3EEF3E037
:102F50001382128288EE93E0A0E0B0E08483958330
:102F6000A683B7832FE031E03183208325EC30E066
:102F70003587248724EC30E03787268720EC30E043
:102F8000318B208B21EC30E0338B228B22EC30E034
:102F9000358B248B26EC30E0378B268B118E128EEE
:102FA000138E148EE0E8F4E01682178210861186E4
:102FB000128613861486158616861786108A118A3D
:102FC000128A138A148A158AE8ECF4E013821282BA
:102FD00084839583A683B78381E291E09183808384
:102FE000E4EDF4E01382128228E030E0358324839C
:102FF00080E190E09783868331872087938782875B
:10300000158A158614861786168681E0848B2FEF25
:103010003FEF338B228B318B208B868B178A118E5F
:10302000108E83E391E0918380830895CF93DF93A3
:10303000CDB7DEB72C970FB6F894DEBF0FBECDBF6D
:10304000789484B5826084BD84B5816084BD85B583
:10305000826085BD85B5816085BD80916E0081608F
:1030600080936E0010928100809181008260809335
:103070008100809181008160809381008091800037
:103080008160809380008091B10084608093B10062
:103090008091B00081608093B00080917A0084605C
:1030A00080937A0080917A00826080937A00809188
:1030B0007A00816080937A0080917A0080688093A2
:1030C0007A001092C1001092C4041092C5041092AC
:1030D000C6041092C70410928204109283041092C6
:1030E0008404109285040E94770C6B017C014B01D3
:1030F0005C0128EB820E2BE0921EA11CB11C0E94E9
:10310000770C6C157D058E059F0528F086169706B1
:10311000A806B906A0F783EE93E09093C3048093CA
:10312000C2040E94A70E0E94770C609382047093E1
:103130008304809384049093850466E872E0809110
:10314000C2049091C3040E94A4170E94770C6B01E3
:103150007C014B015C013AE0830E911CA11CB11C67
:103160000E94770C6C157D058E059F0528F086164C
:103170009706A806B906A0F711E0109396041886E2
:103180001F821A8619861C861B864FE050E068E96C
:1031900072E0CE0107960E94C7150E94A70E4B85CC
:1031A0005C856F81788583EE93E00E949C1565E9CC
:1031B00072E083EE93E00E94071680E48093BA00E9
:1031C00089E89AE0909302058093010585E99AE0E9
:1031D000909300058093FF04109206051092050558
:1031E0001092C0031092E2030E94FB0D84E49EE063
:1031F000909304058093030580E78093FE0410926A
:10320000C0031092E2030E94FB0D8091FE04109314
:10321000BF038093E1031092C0031092E20361E2C6
:1032200088EC94E00E941B0B0E94CF0E8091FE045C
:103230001093BF038093E1031092C0031092E20346
:1032400061E888EC94E00E941B0B0E94CF0E8FE097
:103250000E94620F85E10E94620F83E480937C00EC
:1032600080917A00806480937A0080917A0086FD54
:10327000FCCF609178008091790070E0782B072E68
:10328000000C880B990B611571058105910511F0F2
:103290000E940B1C62E087E00E94010C61E088E064
:1032A0000E94010C62E089E00E94010C61E087E06D
:1032B0000E94D10B60E088E00E94D10B61E089E0C0
:1032C0000E94D10B1A8219821C821B821E821D82CF
:1032D0006F8178856115710531F04B855C85CE0174
:1032E00001960E94C71568EA72E083EE93E00E949F
:1032F00065160E94590F81E08093E8041092EA0459
:1033000081E090E09093E7048093E6049093E504D5
:103310008093E404E12CF12C06E010E00E94590FA8
:10332000F092E104E092E0041093E3040093E204DD
:103330004D815E8169817A8184ED94E00E949C15C3
:103340000E942C0F64E670E080E090E00E943D0C4B
:1033500041E0E41AF1085BE9E5165FEFF506F1F6E6
:103360000E94590F0E942C0F89819A810E94491D49
:103370008F8198850E94491D80E7482E87E1582E4D
:10338000612C712C0E94770C672B682B692B41F400
:103390000E94770C623071058105910508F416C111
:1033A0000E94770C60930D0570930E0580930F05B6
:1033B00090931005C0900905D0900A05E0900B0588
:1033C000F0900C056C157D058E059F0540F460930B
:1033D000090570930A0580930B0590930C05C09026
:1033E0000905D0900A05E0900B05F0900C059B01B3
:1033F000AC012C193D094E095F0969017A013AEFC8
:10340000C316D104E104F10408F4E0C06093090597
:1034100070930A0580930B0590930C0584EF91E05F
:10342000A0E0B0E080938E0490938F04A09390046A
:10343000B093910410929204109293041092940409
:10344000109295048091860490918704A09188043D
:10345000B091890480938A0490938B04A0938C0488
:10346000B0938D040E94770C609386047093870458
:1034700080938804909389040E94770C609382045F
:103480007093830480938404909385040E94770C46
:103490006B017C0160EC72E08091C2049091C304E6
:1034A0000E94A4172AE041E050E060E070E08091C3
:1034B000C2049091C3040E941C1667EC72E08091D4
:1034C000C2049091C3040E94A4172AE0B701A60188
:1034D0008091C2049091C3040E941C1669EC72E0B2
:1034E0008091C2049091C3040E94A4178091860425
:1034F00090918704A0918804B0918904B701A60136
:10350000481B590B6A0B7B0B2AE08091C2049091F7
:10351000C3040E941C1669EC72E08091C204909171
:10352000C3040E94A41740918604509187046091BF
:1035300088047091890480918A0490918B04A091F1
:103540008C04B0918D04481B590B6A0B7B0B2AE04D
:103550008091C2049091C3040E941C166BEC72E02F
:103560008091C2049091C3040E94A4170E94770C1A
:10357000AB01BC012AE08091C2049091C3040E9477
:103580001C166DEC72E08091C2049091C3040E94FD
:1035900065160E94770C6B017C014B015C0192E087
:1035A000890E911CA11CB11C0E94770C6C157D0525
:1035B0008E059F0508F0D5C00E94770C60938604A5
:1035C00070938704809388049093890487E00E9415
:1035D000A80B892B81F4809107059091080501972C
:1035E00009F4BCC081E090E0909308058093070542
:1035F0000E94190EB3C089E00E94A80B892B09F024
:10360000A1C00E94061C28E130E040E050E00E948A
:10361000361C6B017C010E94061C4B015C0164EDB1
:1036200072E083EE93E00E94A417C6010E948C1002
:1036300060EE72E083EE93E00E94A417C501B4012E
:10364000A30192010E94361C4B015C01A0E48A0E8A
:10365000AFE19A1EA11CB11C2AE0B501A40183EEC2
:1036600093E00E941C1665E972E083EE93E00E94ED
:1036700007160D2C000CEE08FF08F6013197E73114
:10368000F10508F05AC0E45AFF4F0C94AE1C81E0DB
:1036900090E002C082E090E00E9401174EC081E0FD
:1036A00090E002C082E090E00E94BC1646C081E03B
:1036B00090E002C082E090E00E9479163EC081E076
:1036C00090E002C082E090E00E944D1536C081E09B
:1036D00090E002C082E090E00E94B6142EC081E02B
:1036E00090E002C082E090E00E941F1426C00E9479
:1036F000E81323C00E94931320C00E943C131DC0F6
:103700000E94E5121AC084E690E002C088EC90E0C6
:103710000E94941212C088E090E00E9453120DC0E3
:103720000E940F120AC084EF91E00E94AD1105C003
:103730000E949B1002C00E94ED0FC501B4010E94BF
:103740003D0C0CC08091070590910805892B31F044
:1037500010920805109207050E943A0E0E9412046A
:1037600011CE86169706A806B90608F01DCF24CFFD
:103770008F929F92AF92BF92CF92DF92EF92FF9281
:10378000CF93DF93EC01688179818A819B816115F8
:1037900071058105910521F464E279ED8BE597E0EF
:1037A0002DE133EF41E050E00E94361C49015A01FF
:1037B0009B01AC01A7EAB1E40E94551C6B017C019E
:1037C000ACEEB4EFA50194010E94631CDC01CB01B7
:1037D0008C0D9D1DAE1DBF1DB7FF03C00197A10934
:1037E000B04888839983AA83BB83BC01CD019F77AE
:1037F000DF91CF91FF90EF90DF90CF90BF90AF908F
:103800009F908F9008950E94B81B089580E091E0EA
:103810000E94B81B0895609300017093010180938A
:103820000201909303010895A1E21A2EAA1BBB1B6B
:10383000FD010DC0AA1FBB1FEE1FFF1FA217B3077C
:10384000E407F50720F0A21BB30BE40BF50B661F92
:10385000771F881F991F1A9469F760957095809556
:1038600090959B01AC01BD01CF010895052E97FBFA
:103870001EF400940E944D1C57FD07D00E94141C9A
:1038800007FC03D04EF40C944D1C50954095309598
:1038900021953F4F4F4F5F4F0895909580957095BC
:1038A00061957F4F8F4F9F4F08950E949F1CA59F4A
:1038B000900DB49F900DA49F800D911D112408952B
:1038C000B7FF0C94551C0E94551C821B930B089546
:1038D0002F923F924F925F926F927F928F929F9220
:1038E000AF92BF92CF92DF92EF92FF920F931F930E
:1038F000CF93DF93CDB7DEB7CA1BDB0B0FB6F894BF
:10390000DEBF0FBECDBF09942A88398848885F84FE
:103910006E847D848C849B84AA84B984C884DF806F
:10392000EE80FD800C811B81AA81B981CE0FD11D53
:103930000FB6F894DEBF0FBECDBFED010895A29F74
:10394000B001B39FC001A39F700D811D1124911D73
:10395000B29F700D811D1124911D0895EE0FFF1F60
:103960000590F491E02D0994CF93DF938230910577
:1039700010F482E090E0E0911305F091140520E04E
:1039800030E0C0E0D0E0309711F14081518148171C
:103990005907C0F04817590761F482819381209735
:1039A00019F09B838A832BC0909314058093130591
:1039B00026C02115310519F04217530718F49A0152
:1039C000BE01DF01EF010280F381E02DDCCF211584
:1039D000310509F1281B390B2430310590F412967A
:1039E0008D919C9113976115710521F0FB019383D3
:1039F000828304C09093140580931305FD013296D1
:103A000044C0FD01E20FF31F8193919322503109CD
:103A10002D933C933AC02091110530911205232B30
:103A200041F4209106013091070130931205209353
:103A3000110520910401309105012115310541F452
:103A40002DB73EB74091080150910901241B350B59
:103A5000E0911105F0911205E217F307A0F42E1B77
:103A60003F0B2817390778F0AC014E5F5F4F2417E2
:103A7000350748F04E0F5F1F509312054093110514
:103A80008193919302C0E0E0F0E0CF01DF91CF910C
:103A900008950F931F93CF93DF93009709F48CC081
:103AA000FC013297138212820091130510911405C4
:103AB0000115110581F420813181820F931F20911E
:103AC0001105309112052817390779F5F093120581
:103AD000E093110571C0D80140E050E0AE17BF0778
:103AE00050F412962D913C911397AD01211531059B
:103AF00009F1D901F3CF9D01DA013383228360817B
:103B00007181860F971F8217930769F4EC01288152
:103B10003981260F371F2E5F3F4F318320838A81E3
:103B20009B8193838283452B29F4F0931405E093C2
:103B3000130542C01396FC93EE931297ED01499141
:103B400059919E01240F351FE217F30771F480810C
:103B50009181840F951F029611969C938E9382817A
:103B6000938113969C938E931297E0E0F0E0D80136
:103B700012968D919C911397009719F0F8018C0182
:103B8000F6CF8D919C9198012E5F3F4F820F931F2E
:103B900020911105309112052817390769F43097E3
:103BA00029F4109214051092130502C01382128298
:103BB0001093120500931105DF91CF911F910F9182
:103BC0000895A0E0B0E0E7EEFDE10C946C1CEC0180
:103BD000009721F4CB010E94B41CB8C0FC01E60F91
:103BE000F71F9C0122503109E217F30708F4ACC01B
:103BF000D9010D911C91119706171707B0F00530E8
:103C0000110508F49FC0C80104978617970708F4A8
:103C100099C002501109061B170B019311936D9364
:103C20007C93CF010E94491D8DC05B01A01AB10A8F
:103C30004C01800E911EA0911305B091140540E037
:103C400050E0E12CF12C109709F44AC0A815B905F1
:103C5000D1F56D907C901197630182E0C80ED11C64
:103C6000CA14DB0480F1A3014A195B096A0182E0EE
:103C7000C80ED11C1296BC9012971396AC91B5E069
:103C8000CB16D10440F0B282A38351834083D90183
:103C90006D937C930AC00E5F1F4FC301800F911F6D
:103CA000F90191838083EB2DFA2FE114F10431F0B7
:103CB000D7011396FC93EE93129744C0F09314052A
:103CC000E09313053FC08D919C91119748175907B8
:103CD00008F4AC017D0112960D90BC91A02DB3CFDC
:103CE000809111059091120588159905E1F4461708
:103CF0005707C8F48091040190910501009741F4A1
:103D00008DB79EB74091080150910901841B950B16
:103D1000E817F907C8F4F0931205E0931105F901CB
:103D2000718360830FC0CB010E94B41C7C0100979B
:103D300059F0A801BE010E94B01ECE010E94491D8B
:103D4000C70104C0CE0102C080E090E0CDB7DEB76D
:103D5000EEE00C94881C81E090E0F8940C94C01E76
:103D6000FB01DC0102C001900D9241505040D8F798
:103D70000895FB01DC0101900D920020E1F7089508
:043D8000F894FFCFE5
:103D8400010000000000150580001500000000A9D6
:103D9400039C154B03F0037C035A036E03000000DD
:103DA400001B0BEB0A4B0BBF0AE30ACF0AC00A0045
:103DB400000000D9069C154B0B4A0B6A04AC09A5FC
:103DC400097D0999098D09AD097C09AE04AD043753
:103DD40009F308A30885080E08AF074576656E74D5
:103DE400202D20416C6C204F6E004576656E74204A
:103DF4002D20416C6C204F6666004576656E7420FC
:103E04002D2052616E646F6D20506978656C004599
:103E140076656E74202D204F6E65204C6F6F700098
:103E24004576656E74202D2054776F204C6F6F702B
:103E34000028002C0029004576656E74202D20464C
:103E44006C617368205175616472616E74004576AB
:103E5400656E74202D20466C6173682056657274FB
:103E64006963616C004576656E74202D20466C6133
:103E7400736820416C6C004576656E74202D204675
:103E8400616465004576656E74202D204579652052
:103E94005363616E004576656E74202D2043796C02
:103EA4006F6E20566572746963616C004576656E49
:103EB40074202D2043796C6F6E20486F72697A6F7D
:103EC4006E74616C004576656E74202D2043726FAC
:103ED4007373004576656E74202D20436F6D707288
:103EE400657373004576656E74202D204578706186
:103EF4006E64004576656E74202D2054726163658E
:103F0400204C65667400564D4450565F317C315FD9
:103F1400564D4450560D0A00526F636B486F7070D3
:103F240065722076312E30004576656E74202D2022
:103F3400486F72697A6F6E74616C2054657874008E
:103F4400564D4450455F003A323A007C005F564D6E
:103F54004450450052616E646F6D204576656E7401
:103F6400202D20004576656E74202D2054726163E7
:103F7400652D5269676874004576656E74202D203E
:103F8400547261636520446F776E004576656E7484
:103F9400202D205472616365205570004576656E4E
:0A3FA40074202D2054657374000092
:107800000C94343C0C94513C0C94513C0C94513CE1
:107810000C94513C0C94513C0C94513C0C94513CB4
:107820000C94513C0C94513C0C94513C0C94513CA4
:107830000C94513C0C94513C0C94513C0C94513C94
:107840000C94513C0C94513C0C94513C0C94513C84
:107850000C94513C0C94513C0C94513C0C94513C74
:107860000C94513C0C94513C11241FBECFEFD8E036
:10787000DEBFCDBF11E0A0E0B1E0ECE9FFE702C060
:1078800005900D92A230B107D9F712E0A2E0B1E065
:1078900001C01D92AD30B107E1F70E942D3D0C945F
:1078A000CC3F0C94003C982F959595959595959582
:1078B000905D8F708A307CF0282F295A8091C0000B
:1078C00085FFFCCF9093C6008091C00085FFFCCF60
:1078D0002093C6000895282F205DF0CF982F809127
:1078E000C00085FFFCCF9093C6000895EF92FF92F1
:1078F0000F931F93EE24FF2487018091C00087FD22
:1079000017C00894E11CF11C011D111D81E4E8164B
:1079100082E4F8068FE0080780E0180770F3E09132
:107920000401F091050109958091C00087FFE9CF1E
:107930008091C6001F910F91FF90EF9008950E94D3
:10794000763C982F8091C00085FFFCCF9093C600B5
:1079500091362CF490330CF09053892F089597555D
:10796000892F08951F930E949F3C182F0E949F3CCF
:107970001295107F810F1F9108951F93182F882350
:1079800021F00E94763C1150E1F71F9108951F935A
:10799000182F0E94763C803249F0809103018F5F5E
:1079A000809303018530C1F01F9108958091C0003C
:1079B00085FFFCCF84E18093C6008091C00085FFE5
:1079C000FCCF1093C6008091C00085FFFCCF80E102
:1079D0008093C6001F910895E0910401F091050184
:1079E00009951F9108950E94763C803241F0809164
:1079F00003018F5F80930301853081F008958091AA
:107A0000C00085FFFCCF84E18093C6008091C00058
:107A100085FFFCCF80E18093C6000895E0910401CA
:107A2000F09105010995089540E951E08823A1F0FE
:107A30002D9A28EE33E0FA013197F1F721503040CA
:107A4000D1F72D9828EE33E0FA013197F1F7215064
:107A50003040D1F7815061F708953F924F925F9285
:107A60006F927F928F929F92AF92BF92CF92DF924E
:107A7000EF92FF920F931F93CF93DF93000080E16B
:107A80008093C4001092C50088E18093C10086E015
:107A90008093C2005098589A259A81E00E94143D24
:107AA00024E1F22E9EE1E92E85E9D82E0FE0C02ECA
:107AB00010E1B12EAA24A394B1E49B2EA6E58A2E50
:107AC000F2E57F2EE0E26E2E79E4572E63E5462E36
:107AD00050E5352E0E94763C8033B1F18133B9F107
:107AE000803409F46FC0813409F476C0823409F41B
:107AF00085C0853409F488C0803531F1823521F1A3
:107B0000813511F1853509F485C0863509F48DC0BC
:107B1000843609F496C0843709F403C1853709F423
:107B200072C1863709F466C0809103018F5F80932C
:107B30000301853079F6E0910401F0910501099582
:107B40000E94763C803351F60E94F33CC3CF0E94E2
:107B5000763C803249F78091C00085FFFCCFF092DF
:107B6000C6008091C00085FFFCCF9092C600809136
:107B7000C00085FFFCCF8092C6008091C00085FFC9
:107B8000FCCF7092C6008091C00085FFFCCF609250
:107B9000C6008091C00085FFFCCF5092C600809146
:107BA000C00085FFFCCF4092C6008091C00085FFD9
:107BB000FCCF3092C6008091C00085FFFCCFB09210
:107BC000C60088CF0E94763C863808F4BDCF0E945C
:107BD000763C0E94F33C7ECF0E94763C803809F4CC
:107BE0009CC0813809F40BC1823809F43CC1883942
:107BF00009F48FC080E00E94C73C6CCF84E10E94F2
:107C0000BD3C0E94F33C66CF85E00E94BD3C0E94D3
:107C1000F33C60CF0E94763C809306010E94763C44
:107C2000809307010E94F33C55CF0E94763C80333D
:107C300009F41DC183E00E94BD3C80E00E94C73C66
:107C400049CF0E94763C809309020E94763C809343
:107C5000080280910C028E7F80930C020E94763C79
:107C6000853409F415C18091080290910902892B8D
:107C700089F000E010E00E94763CF801E85FFE4FDA
:107C800080830F5F1F4F80910802909109020817AF
:107C9000190788F30E94763C803209F045CF809125
:107CA0000C0280FF01C16091060170910701660F0F
:107CB000771F7093070160930601A0910802B091AD
:107CC00009021097C9F0E8E0F1E09B01AD014E0F09
:107CD0005F1FF999FECF32BD21BD819180BDFA9A17
:107CE000F99A2F5F3F4FE417F50799F76A0F7B1F4B
:107CF00070930701609306018091C00085FFFCCF5F
:107D0000F092C6008091C00085FFFCCFB092C60003
:107D1000E1CE83E00E94C73CDDCE82E00E94C73CFA
:107D2000D9CE0E94763C809309020E94763C8093D3
:107D300008028091060190910701880F991F909386
:107D40000701809306010E94763C853409F4A6C0A1
:107D500080910C028E7F80930C020E94763C8032D0
:107D600009F0B8CE8091C00085FFFCCFF092C6002C
:107D7000609108027091090261157105B9F140E046
:107D800050E080910C02A82FA170B82FB27011C0E2
:107D9000BB2309F45CC0E0910601F0910701319624
:107DA000F0930701E09306014F5F5F4F46175707B7
:107DB000E8F4AA2369F3F999FECF209106013091E6
:107DC000070132BD21BDF89A90B58091C00085FFB2
:107DD000FCCF9093C6002F5F3F4F30930701209355
:107DE00006014F5F5F4F4617570718F38091C00099
:107DF00085FDE5CE8091C00085FFF8CFE0CE81E023
:107E00000E94C73C67CE0E94763C803209F08CCE3F
:107E10008091C00085FFFCCFF092C6008091C00029
:107E200085FFFCCFE092C6008091C00085FFFCCFAB
:107E3000D092C6008091C00085FFFCCFC092C600E2
:107E40008091C00085FFFCCFB092C60043CEE09188
:107E50000601F091070194918091C00085FFFCCF4D
:107E60009093C6009CCF80E10E94C73C33CE0E9415
:107E7000763C0E94763C182F0E94763C112309F430
:107E800083C0113009F484C08FE00E94C73C22CE29
:107E900080910C02816080930C02E5CE80910C02EF
:107EA000816080930C0259CF809107018823880F4D
:107EB000880B8A2180930B02809106019091070123
:107EC000880F991F90930701809306018091080203
:107ED00080FF09C080910802909109020196909359
:107EE000090280930802F894F999FECF1127E091D6
:107EF0000601F0910701C8E0D1E08091080290915D
:107F00000902103091F40091570001700130D9F34B
:107F100003E000935700E89500915700017001308D
:107F2000D9F301E100935700E89509901990009169
:107F3000570001700130D9F301E000935700E89534
:107F40001395103498F011270091570001700130FB
:107F5000D9F305E000935700E895009157000170B0
:107F60000130D9F301E100935700E895329602976A
:107F700009F0C7CF103011F00296E5CF112480919F
:107F8000C00085FFB9CEBCCE8EE10E94C73CA2CD19
:0C7F900085E90E94C73C9ECDF894FFCF0D
:027F9C00800063
:040000030000780081
:00000001FF